{
	"contracts/Auction.sol": {
		"Auction": {
			"abi": [
				{
					"constant": false,
					"inputs": [],
					"name": "register",
					"outputs": [],
					"payable": true,
					"stateMutability": "payable",
					"type": "function"
				},
				{
					"constant": true,
					"inputs": [],
					"name": "beneficiary",
					"outputs": [
						{
							"name": "",
							"type": "address"
						}
					],
					"payable": false,
					"stateMutability": "view",
					"type": "function"
				},
				{
					"constant": false,
					"inputs": [
						{
							"name": "_itemId",
							"type": "uint256"
						},
						{
							"name": "_count",
							"type": "uint256"
						}
					],
					"name": "bid",
					"outputs": [],
					"payable": true,
					"stateMutability": "payable",
					"type": "function"
				},
				{
					"constant": true,
					"inputs": [
						{
							"name": "id",
							"type": "uint256"
						}
					],
					"name": "getPersonDetails",
					"outputs": [
						{
							"name": "",
							"type": "uint256"
						},
						{
							"name": "",
							"type": "uint256"
						},
						{
							"name": "",
							"type": "address"
						}
					],
					"payable": false,
					"stateMutability": "view",
					"type": "function"
				},
				{
					"constant": false,
					"inputs": [],
					"name": "revealWinners",
					"outputs": [],
					"payable": false,
					"stateMutability": "nonpayable",
					"type": "function"
				},
				{
					"constant": true,
					"inputs": [
						{
							"name": "",
							"type": "uint256"
						}
					],
					"name": "winners",
					"outputs": [
						{
							"name": "",
							"type": "address"
						}
					],
					"payable": false,
					"stateMutability": "view",
					"type": "function"
				},
				{
					"constant": true,
					"inputs": [
						{
							"name": "",
							"type": "uint256"
						}
					],
					"name": "items",
					"outputs": [
						{
							"name": "itemId",
							"type": "uint256"
						}
					],
					"payable": false,
					"stateMutability": "view",
					"type": "function"
				},
				{
					"inputs": [],
					"payable": true,
					"stateMutability": "payable",
					"type": "constructor"
				}
			],
			"devdoc": {
				"methods": {}
			},
			"evm": {
				"assembly": "    /* \"contracts/Auction.sol\":26:5844  contract Auction {\r... */\n  mstore(0x40, 0x60)\n    /* \"contracts/Auction.sol\":844:845  0 */\n  0x0\n    /* \"contracts/Auction.sol\":827:845  uint bidderCount=0 */\n  0x17\n  sstore\n    /* \"contracts/Auction.sol\":1261:1285  uint[] memory emptyArray */\n  tag_2\n  jump\t// in(tag_3)\ntag_2:\n    /* \"contracts/Auction.sol\":1205:1215  msg.sender */\n  caller\n    /* \"contracts/Auction.sol\":1191:1202  beneficiary */\n  0x16\n  0x0\n    /* \"contracts/Auction.sol\":1191:1215  beneficiary = msg.sender */\n  0x100\n  exp\n  dup2\n  sload\n  dup2\n  0xffffffffffffffffffffffffffffffffffffffff\n  mul\n  not\n  and\n  swap1\n  dup4\n  0xffffffffffffffffffffffffffffffffffffffff\n  and\n  mul\n  or\n  swap1\n  sstore\n  pop\n    /* \"contracts/Auction.sol\":1307:1345  Item({itemId:0,itemTokens:emptyArray}) */\n  0x40\n  dup1\n  mload\n  swap1\n  dup2\n  add\n  0x40\n  mstore\n  dup1\n    /* \"contracts/Auction.sol\":1320:1321  0 */\n  0x0\n    /* \"contracts/Auction.sol\":1307:1345  Item({itemId:0,itemTokens:emptyArray}) */\n  dup2\n  mstore\n  0x20\n  add\n    /* \"contracts/Auction.sol\":1333:1343  emptyArray */\n  dup3\n    /* \"contracts/Auction.sol\":1307:1345  Item({itemId:0,itemTokens:emptyArray}) */\n  dup2\n  mstore\n  pop\n    /* \"contracts/Auction.sol\":1296:1301  items */\n  0xd\n    /* \"contracts/Auction.sol\":1302:1303  0 */\n  0x0\n    /* \"contracts/Auction.sol\":1296:1304  items[0] */\n  0x3\n  dup2\n  lt\n  iszero\n  iszero\n  tag_5\n  jumpi\n  invalid\ntag_5:\n  0x2\n  mul\n  add\n    /* \"contracts/Auction.sol\":1296:1345  items[0] = Item({itemId:0,itemTokens:emptyArray}) */\n  0x0\n  dup3\n  add\n  mload\n  dup2\n  0x0\n  add\n  sstore\n  0x20\n  dup3\n  add\n  mload\n  dup2\n  0x1\n  add\n  swap1\n  dup1\n  mload\n  swap1\n  0x20\n  add\n  swap1\n  tag_7\n  swap3\n  swap2\n  swap1\n  jump\t// in(tag_8)\ntag_7:\n  pop\n  swap1\n  pop\n  pop\n    /* \"contracts/Auction.sol\":1507:1546  Item({itemId:1, itemTokens:emptyArray}) */\n  0x40\n  dup1\n  mload\n  swap1\n  dup2\n  add\n  0x40\n  mstore\n  dup1\n    /* \"contracts/Auction.sol\":1520:1521  1 */\n  0x1\n    /* \"contracts/Auction.sol\":1507:1546  Item({itemId:1, itemTokens:emptyArray}) */\n  dup2\n  mstore\n  0x20\n  add\n    /* \"contracts/Auction.sol\":1534:1544  emptyArray */\n  dup3\n    /* \"contracts/Auction.sol\":1507:1546  Item({itemId:1, itemTokens:emptyArray}) */\n  dup2\n  mstore\n  pop\n    /* \"contracts/Auction.sol\":1496:1501  items */\n  0xd\n    /* \"contracts/Auction.sol\":1502:1503  1 */\n  0x1\n    /* \"contracts/Auction.sol\":1496:1504  items[1] */\n  0x3\n  dup2\n  lt\n  iszero\n  iszero\n  tag_9\n  jumpi\n  invalid\ntag_9:\n  0x2\n  mul\n  add\n    /* \"contracts/Auction.sol\":1496:1546  items[1] = Item({itemId:1, itemTokens:emptyArray}) */\n  0x0\n  dup3\n  add\n  mload\n  dup2\n  0x0\n  add\n  sstore\n  0x20\n  dup3\n  add\n  mload\n  dup2\n  0x1\n  add\n  swap1\n  dup1\n  mload\n  swap1\n  0x20\n  add\n  swap1\n  tag_11\n  swap3\n  swap2\n  swap1\n  jump\t// in(tag_8)\ntag_11:\n  pop\n  swap1\n  pop\n  pop\n    /* \"contracts/Auction.sol\":1568:1607  Item({itemId:2, itemTokens:emptyArray}) */\n  0x40\n  dup1\n  mload\n  swap1\n  dup2\n  add\n  0x40\n  mstore\n  dup1\n    /* \"contracts/Auction.sol\":1581:1582  2 */\n  0x2\n    /* \"contracts/Auction.sol\":1568:1607  Item({itemId:2, itemTokens:emptyArray}) */\n  dup2\n  mstore\n  0x20\n  add\n    /* \"contracts/Auction.sol\":1595:1605  emptyArray */\n  dup3\n    /* \"contracts/Auction.sol\":1568:1607  Item({itemId:2, itemTokens:emptyArray}) */\n  dup2\n  mstore\n  pop\n    /* \"contracts/Auction.sol\":1557:1562  items */\n  0xd\n    /* \"contracts/Auction.sol\":1563:1564  2 */\n  0x2\n    /* \"contracts/Auction.sol\":1557:1565  items[2] */\n  0x3\n  dup2\n  lt\n  iszero\n  iszero\n  tag_12\n  jumpi\n  invalid\ntag_12:\n  0x2\n  mul\n  add\n    /* \"contracts/Auction.sol\":1557:1607  items[2] = Item({itemId:2, itemTokens:emptyArray}) */\n  0x0\n  dup3\n  add\n  mload\n  dup2\n  0x0\n  add\n  sstore\n  0x20\n  dup3\n  add\n  mload\n  dup2\n  0x1\n  add\n  swap1\n  dup1\n  mload\n  swap1\n  0x20\n  add\n  swap1\n  tag_14\n  swap3\n  swap2\n  swap1\n  jump\t// in(tag_8)\ntag_14:\n  pop\n  swap1\n  pop\n  pop\n    /* \"contracts/Auction.sol\":886:1646  function Auction() public payable{    //constructor\r... */\n  pop\n    /* \"contracts/Auction.sol\":26:5844  contract Auction {\r... */\n  jump(tag_15)\ntag_3:\n  0x20\n  mload(0x40)\n  swap1\n  dup2\n  add\n  0x40\n  mstore\n  dup1\n  0x0\n  dup2\n  mstore\n  pop\n  swap1\n  jump\t// out\ntag_8:\n  dup3\n  dup1\n  sload\n  dup3\n  dup3\n  sstore\n  swap1\n  0x0\n  mstore\n  keccak256(0x0, 0x20)\n  swap1\n  dup2\n  add\n  swap3\n  dup3\n  iszero\n  tag_16\n  jumpi\n  swap2\n  0x20\n  mul\n  dup3\n  add\ntag_17:\n  dup3\n  dup2\n  gt\n  iszero\n  tag_18\n  jumpi\n  dup3\n  mload\n  dup3\n  sstore\n  swap2\n  0x20\n  add\n  swap2\n  swap1\n  0x1\n  add\n  swap1\n  jump(tag_17)\ntag_18:\ntag_16:\n  pop\n  swap1\n  pop\n  tag_19\n  swap2\n  swap1\n  jump\t// in(tag_20)\ntag_19:\n  pop\n  swap1\n  jump\t// out\ntag_20:\n  tag_21\n  swap2\n  swap1\ntag_22:\n  dup1\n  dup3\n  gt\n  iszero\n  tag_23\n  jumpi\n  0x0\n  dup2\n  0x0\n  swap1\n  sstore\n  pop\n  0x1\n  add\n  jump(tag_22)\ntag_23:\n  pop\n  swap1\n  jump\ntag_21:\n  swap1\n  jump\t// out\ntag_15:\n  dataSize(sub_0)\n  dup1\n  dataOffset(sub_0)\n  0x0\n  codecopy\n  0x0\n  return\nstop\n\nsub_0: assembly {\n        /* \"contracts/Auction.sol\":26:5844  contract Auction {\r... */\n      mstore(0x40, 0x60)\n      jumpi(tag_1, iszero(calldatasize))\n      calldataload(0x0)\n      0x100000000000000000000000000000000000000000000000000000000\n      swap1\n      div\n      0xffffffff\n      and\n      dup1\n      0x1aa3a008\n      eq\n      tag_2\n      jumpi\n      dup1\n      0x38af3eed\n      eq\n      tag_3\n      jumpi\n      dup1\n      0x598647f8\n      eq\n      tag_4\n      jumpi\n      dup1\n      0x60981705\n      eq\n      tag_5\n      jumpi\n      dup1\n      0x952587d6\n      eq\n      tag_6\n      jumpi\n      dup1\n      0xa2fb1175\n      eq\n      tag_7\n      jumpi\n      dup1\n      0xbfb231d2\n      eq\n      tag_8\n      jumpi\n    tag_1:\n      0x0\n      dup1\n      revert\n        /* \"contracts/Auction.sol\":1660:2257  function register() public payable{\r... */\n    tag_2:\n      tag_9\n      jump(tag_10)\n    tag_9:\n      stop\n        /* \"contracts/Auction.sol\":759:785  address public beneficiary */\n    tag_3:\n      jumpi(tag_11, iszero(callvalue))\n      0x0\n      dup1\n      revert\n    tag_11:\n      tag_12\n      jump(tag_13)\n    tag_12:\n      mload(0x40)\n      dup1\n      dup3\n      0xffffffffffffffffffffffffffffffffffffffff\n      and\n      0xffffffffffffffffffffffffffffffffffffffff\n      and\n      dup2\n      mstore\n      0x20\n      add\n      swap2\n      pop\n      pop\n      mload(0x40)\n      dup1\n      swap2\n      sub\n      swap1\n      return\n        /* \"contracts/Auction.sol\":2269:4060  function bid(uint _itemId, uint _count) public payable{\r... */\n    tag_4:\n      tag_14\n      0x4\n      dup1\n      dup1\n      calldataload\n      swap1\n      0x20\n      add\n      swap1\n      swap2\n      swap1\n      dup1\n      calldataload\n      swap1\n      0x20\n      add\n      swap1\n      swap2\n      swap1\n      pop\n      pop\n      jump(tag_15)\n    tag_14:\n      stop\n        /* \"contracts/Auction.sol\":5669:5839  function getPersonDetails(uint id) public constant returns(uint,uint,address){\r... */\n    tag_5:\n      jumpi(tag_16, iszero(callvalue))\n      0x0\n      dup1\n      revert\n    tag_16:\n      tag_17\n      0x4\n      dup1\n      dup1\n      calldataload\n      swap1\n      0x20\n      add\n      swap1\n      swap2\n      swap1\n      pop\n      pop\n      jump(tag_18)\n    tag_17:\n      mload(0x40)\n      dup1\n      dup5\n      dup2\n      mstore\n      0x20\n      add\n      dup4\n      dup2\n      mstore\n      0x20\n      add\n      dup3\n      0xffffffffffffffffffffffffffffffffffffffff\n      and\n      0xffffffffffffffffffffffffffffffffffffffff\n      and\n      dup2\n      mstore\n      0x20\n      add\n      swap4\n      pop\n      pop\n      pop\n      pop\n      mload(0x40)\n      dup1\n      swap2\n      sub\n      swap1\n      return\n        /* \"contracts/Auction.sol\":4463:5564  function revealWinners() public onlyOwner{\r... */\n    tag_6:\n      jumpi(tag_19, iszero(callvalue))\n      0x0\n      dup1\n      revert\n    tag_19:\n      tag_20\n      jump(tag_21)\n    tag_20:\n      stop\n        /* \"contracts/Auction.sol\":697:722  address[3] public winners */\n    tag_7:\n      jumpi(tag_22, iszero(callvalue))\n      0x0\n      dup1\n      revert\n    tag_22:\n      tag_23\n      0x4\n      dup1\n      dup1\n      calldataload\n      swap1\n      0x20\n      add\n      swap1\n      swap2\n      swap1\n      pop\n      pop\n      jump(tag_24)\n    tag_23:\n      mload(0x40)\n      dup1\n      dup3\n      0xffffffffffffffffffffffffffffffffffffffff\n      and\n      0xffffffffffffffffffffffffffffffffffffffff\n      and\n      dup2\n      mstore\n      0x20\n      add\n      swap2\n      pop\n      pop\n      mload(0x40)\n      dup1\n      swap2\n      sub\n      swap1\n      return\n        /* \"contracts/Auction.sol\":636:657  Item [3] public items */\n    tag_8:\n      jumpi(tag_25, iszero(callvalue))\n      0x0\n      dup1\n      revert\n    tag_25:\n      tag_26\n      0x4\n      dup1\n      dup1\n      calldataload\n      swap1\n      0x20\n      add\n      swap1\n      swap2\n      swap1\n      pop\n      pop\n      jump(tag_27)\n    tag_26:\n      mload(0x40)\n      dup1\n      dup3\n      dup2\n      mstore\n      0x20\n      add\n      swap2\n      pop\n      pop\n      mload(0x40)\n      dup1\n      swap2\n      sub\n      swap1\n      return\n        /* \"contracts/Auction.sol\":1660:2257  function register() public payable{\r... */\n    tag_10:\n        /* \"contracts/Auction.sol\":1757:1768  bidderCount */\n      sload(0x17)\n        /* \"contracts/Auction.sol\":1725:1732  bidders */\n      0x1\n        /* \"contracts/Auction.sol\":1733:1744  bidderCount */\n      sload(0x17)\n        /* \"contracts/Auction.sol\":1725:1745  bidders[bidderCount] */\n      0x4\n      dup2\n      lt\n      iszero\n      iszero\n      tag_29\n      jumpi\n      invalid\n    tag_29:\n      0x3\n      mul\n      add\n        /* \"contracts/Auction.sol\":1725:1754  bidders[bidderCount].personId */\n      0x1\n      add\n        /* \"contracts/Auction.sol\":1725:1768  bidders[bidderCount].personId = bidderCount */\n      dup2\n      swap1\n      sstore\n      pop\n        /* \"contracts/Auction.sol\":2049:2059  msg.sender */\n      caller\n        /* \"contracts/Auction.sol\":2021:2028  bidders */\n      0x1\n        /* \"contracts/Auction.sol\":2029:2040  bidderCount */\n      sload(0x17)\n        /* \"contracts/Auction.sol\":2021:2041  bidders[bidderCount] */\n      0x4\n      dup2\n      lt\n      iszero\n      iszero\n      tag_31\n      jumpi\n      invalid\n    tag_31:\n      0x3\n      mul\n      add\n        /* \"contracts/Auction.sol\":2021:2046  bidders[bidderCount].addr */\n      0x2\n      add\n      0x0\n        /* \"contracts/Auction.sol\":2021:2059  bidders[bidderCount].addr = msg.sender */\n      0x100\n      exp\n      dup2\n      sload\n      dup2\n      0xffffffffffffffffffffffffffffffffffffffff\n      mul\n      not\n      and\n      swap1\n      dup4\n      0xffffffffffffffffffffffffffffffffffffffff\n      and\n      mul\n      or\n      swap1\n      sstore\n      pop\n        /* \"contracts/Auction.sol\":2151:2152  5 */\n      0x5\n        /* \"contracts/Auction.sol\":2112:2119  bidders */\n      0x1\n        /* \"contracts/Auction.sol\":2120:2131  bidderCount */\n      sload(0x17)\n        /* \"contracts/Auction.sol\":2112:2132  bidders[bidderCount] */\n      0x4\n      dup2\n      lt\n      iszero\n      iszero\n      tag_33\n      jumpi\n      invalid\n    tag_33:\n      0x3\n      mul\n      add\n        /* \"contracts/Auction.sol\":2112:2148  bidders[bidderCount].remainingTokens */\n      0x0\n      add\n        /* \"contracts/Auction.sol\":2112:2152  bidders[bidderCount].remainingTokens = 5 */\n      dup2\n      swap1\n      sstore\n      pop\n        /* \"contracts/Auction.sol\":2205:2212  bidders */\n      0x1\n        /* \"contracts/Auction.sol\":2213:2224  bidderCount */\n      sload(0x17)\n        /* \"contracts/Auction.sol\":2205:2225  bidders[bidderCount] */\n      0x4\n      dup2\n      lt\n      iszero\n      iszero\n      tag_35\n      jumpi\n      invalid\n    tag_35:\n      0x3\n      mul\n      add\n        /* \"contracts/Auction.sol\":2180:2192  tokenDetails */\n      0x0\n        /* \"contracts/Auction.sol\":2180:2204  tokenDetails[msg.sender] */\n      dup1\n        /* \"contracts/Auction.sol\":2193:2203  msg.sender */\n      caller\n        /* \"contracts/Auction.sol\":2180:2204  tokenDetails[msg.sender] */\n      0xffffffffffffffffffffffffffffffffffffffff\n      and\n      0xffffffffffffffffffffffffffffffffffffffff\n      and\n      dup2\n      mstore\n      0x20\n      add\n      swap1\n      dup2\n      mstore\n      0x20\n      add\n      0x0\n      keccak256\n        /* \"contracts/Auction.sol\":2180:2225  tokenDetails[msg.sender]=bidders[bidderCount] */\n      0x0\n      dup3\n      add\n      sload\n      dup2\n      0x0\n      add\n      sstore\n      0x1\n      dup3\n      add\n      sload\n      dup2\n      0x1\n      add\n      sstore\n      0x2\n      dup3\n      add\n      0x0\n      swap1\n      sload\n      swap1\n      0x100\n      exp\n      swap1\n      div\n      0xffffffffffffffffffffffffffffffffffffffff\n      and\n      dup2\n      0x2\n      add\n      exp(0x100, 0x0)\n      dup2\n      sload\n      dup2\n      0xffffffffffffffffffffffffffffffffffffffff\n      mul\n      not\n      and\n      swap1\n      dup4\n      0xffffffffffffffffffffffffffffffffffffffff\n      and\n      mul\n      or\n      swap1\n      sstore\n      pop\n      swap1\n      pop\n      pop\n        /* \"contracts/Auction.sol\":2236:2247  bidderCount */\n      0x17\n      0x0\n        /* \"contracts/Auction.sol\":2236:2249  bidderCount++ */\n      dup2\n      sload\n      dup1\n      swap3\n      swap2\n      swap1\n      0x1\n      add\n      swap2\n      swap1\n      pop\n      sstore\n      pop\n        /* \"contracts/Auction.sol\":1660:2257  function register() public payable{\r... */\n      jump\t// out\n        /* \"contracts/Auction.sol\":759:785  address public beneficiary */\n    tag_13:\n      0x16\n      0x0\n      swap1\n      sload\n      swap1\n      0x100\n      exp\n      swap1\n      div\n      0xffffffffffffffffffffffffffffffffffffffff\n      and\n      dup2\n      jump\t// out\n        /* \"contracts/Auction.sol\":2269:4060  function bid(uint _itemId, uint _count) public payable{\r... */\n    tag_15:\n        /* \"contracts/Auction.sol\":3583:3595  uint balance */\n      0x0\n        /* \"contracts/Auction.sol\":3888:3908  Item storage bidItem */\n      dup1\n        /* \"contracts/Auction.sol\":3940:3946  uint i */\n      0x0\n        /* \"contracts/Auction.sol\":3150:3156  _count */\n      dup4\n        /* \"contracts/Auction.sol\":3107:3119  tokenDetails */\n      0x0\n        /* \"contracts/Auction.sol\":3107:3131  tokenDetails[msg.sender] */\n      dup1\n        /* \"contracts/Auction.sol\":3120:3130  msg.sender */\n      caller\n        /* \"contracts/Auction.sol\":3107:3131  tokenDetails[msg.sender] */\n      0xffffffffffffffffffffffffffffffffffffffff\n      and\n      0xffffffffffffffffffffffffffffffffffffffff\n      and\n      dup2\n      mstore\n      0x20\n      add\n      swap1\n      dup2\n      mstore\n      0x20\n      add\n      0x0\n      keccak256\n        /* \"contracts/Auction.sol\":3107:3147  tokenDetails[msg.sender].remainingTokens */\n      0x0\n      add\n      sload\n        /* \"contracts/Auction.sol\":3107:3156  tokenDetails[msg.sender].remainingTokens < _count */\n      lt\n        /* \"contracts/Auction.sol\":3107:3205  tokenDetails[msg.sender].remainingTokens < _count || tokenDetails[msg.sender].remainingTokens == 0 */\n      dup1\n      tag_38\n      jumpi\n      pop\n        /* \"contracts/Auction.sol\":3204:3205  0 */\n      0x0\n        /* \"contracts/Auction.sol\":3160:3172  tokenDetails */\n      dup1\n        /* \"contracts/Auction.sol\":3160:3184  tokenDetails[msg.sender] */\n      0x0\n        /* \"contracts/Auction.sol\":3173:3183  msg.sender */\n      caller\n        /* \"contracts/Auction.sol\":3160:3184  tokenDetails[msg.sender] */\n      0xffffffffffffffffffffffffffffffffffffffff\n      and\n      0xffffffffffffffffffffffffffffffffffffffff\n      and\n      dup2\n      mstore\n      0x20\n      add\n      swap1\n      dup2\n      mstore\n      0x20\n      add\n      0x0\n      keccak256\n        /* \"contracts/Auction.sol\":3160:3200  tokenDetails[msg.sender].remainingTokens */\n      0x0\n      add\n      sload\n        /* \"contracts/Auction.sol\":3160:3205  tokenDetails[msg.sender].remainingTokens == 0 */\n      eq\n        /* \"contracts/Auction.sol\":3107:3205  tokenDetails[msg.sender].remainingTokens < _count || tokenDetails[msg.sender].remainingTokens == 0 */\n    tag_38:\n        /* \"contracts/Auction.sol\":3107:3221  tokenDetails[msg.sender].remainingTokens < _count || tokenDetails[msg.sender].remainingTokens == 0 ||  _itemId > 2 */\n      dup1\n      tag_39\n      jumpi\n      pop\n        /* \"contracts/Auction.sol\":3220:3221  2 */\n      0x2\n        /* \"contracts/Auction.sol\":3210:3217  _itemId */\n      dup6\n        /* \"contracts/Auction.sol\":3210:3221  _itemId > 2 */\n      gt\n        /* \"contracts/Auction.sol\":3107:3221  tokenDetails[msg.sender].remainingTokens < _count || tokenDetails[msg.sender].remainingTokens == 0 ||  _itemId > 2 */\n    tag_39:\n        /* \"contracts/Auction.sol\":3103:3250  if (tokenDetails[msg.sender].remainingTokens < _count || tokenDetails[msg.sender].remainingTokens == 0 ||  _itemId > 2) { \r... */\n      iszero\n      tag_40\n      jumpi\n        /* \"contracts/Auction.sol\":3239:3247  revert() */\n      0x0\n      dup1\n      revert\n        /* \"contracts/Auction.sol\":3103:3250  if (tokenDetails[msg.sender].remainingTokens < _count || tokenDetails[msg.sender].remainingTokens == 0 ||  _itemId > 2) { \r... */\n    tag_40:\n        /* \"contracts/Auction.sol\":3640:3646  _count */\n      dup4\n        /* \"contracts/Auction.sol\":3597:3609  tokenDetails */\n      0x0\n        /* \"contracts/Auction.sol\":3597:3621  tokenDetails[msg.sender] */\n      dup1\n        /* \"contracts/Auction.sol\":3610:3620  msg.sender */\n      caller\n        /* \"contracts/Auction.sol\":3597:3621  tokenDetails[msg.sender] */\n      0xffffffffffffffffffffffffffffffffffffffff\n      and\n      0xffffffffffffffffffffffffffffffffffffffff\n      and\n      dup2\n      mstore\n      0x20\n      add\n      swap1\n      dup2\n      mstore\n      0x20\n      add\n      0x0\n      keccak256\n        /* \"contracts/Auction.sol\":3597:3637  tokenDetails[msg.sender].remainingTokens */\n      0x0\n      add\n      sload\n        /* \"contracts/Auction.sol\":3597:3646  tokenDetails[msg.sender].remainingTokens - _count */\n      sub\n        /* \"contracts/Auction.sol\":3583:3646  uint balance= tokenDetails[msg.sender].remainingTokens - _count */\n      swap3\n      pop\n        /* \"contracts/Auction.sol\":3740:3747  balance */\n      dup3\n        /* \"contracts/Auction.sol\":3699:3711  tokenDetails */\n      0x0\n        /* \"contracts/Auction.sol\":3699:3723  tokenDetails[msg.sender] */\n      dup1\n        /* \"contracts/Auction.sol\":3712:3722  msg.sender */\n      caller\n        /* \"contracts/Auction.sol\":3699:3723  tokenDetails[msg.sender] */\n      0xffffffffffffffffffffffffffffffffffffffff\n      and\n      0xffffffffffffffffffffffffffffffffffffffff\n      and\n      dup2\n      mstore\n      0x20\n      add\n      swap1\n      dup2\n      mstore\n      0x20\n      add\n      0x0\n      keccak256\n        /* \"contracts/Auction.sol\":3699:3739  tokenDetails[msg.sender].remainingTokens */\n      0x0\n      add\n        /* \"contracts/Auction.sol\":3699:3747  tokenDetails[msg.sender].remainingTokens=balance */\n      dup2\n      swap1\n      sstore\n      pop\n        /* \"contracts/Auction.sol\":3817:3824  balance */\n      dup3\n        /* \"contracts/Auction.sol\":3758:3765  bidders */\n      0x1\n        /* \"contracts/Auction.sol\":3766:3778  tokenDetails */\n      0x0\n        /* \"contracts/Auction.sol\":3766:3790  tokenDetails[msg.sender] */\n      dup1\n        /* \"contracts/Auction.sol\":3779:3789  msg.sender */\n      caller\n        /* \"contracts/Auction.sol\":3766:3790  tokenDetails[msg.sender] */\n      0xffffffffffffffffffffffffffffffffffffffff\n      and\n      0xffffffffffffffffffffffffffffffffffffffff\n      and\n      dup2\n      mstore\n      0x20\n      add\n      swap1\n      dup2\n      mstore\n      0x20\n      add\n      0x0\n      keccak256\n        /* \"contracts/Auction.sol\":3766:3799  tokenDetails[msg.sender].personId */\n      0x1\n      add\n      sload\n        /* \"contracts/Auction.sol\":3758:3800  bidders[tokenDetails[msg.sender].personId] */\n      0x4\n      dup2\n      lt\n      iszero\n      iszero\n      tag_41\n      jumpi\n      invalid\n    tag_41:\n      0x3\n      mul\n      add\n        /* \"contracts/Auction.sol\":3758:3816  bidders[tokenDetails[msg.sender].personId].remainingTokens */\n      0x0\n      add\n        /* \"contracts/Auction.sol\":3758:3824  bidders[tokenDetails[msg.sender].personId].remainingTokens=balance */\n      dup2\n      swap1\n      sstore\n      pop\n        /* \"contracts/Auction.sol\":3911:3916  items */\n      0xd\n        /* \"contracts/Auction.sol\":3917:3924  _itemId */\n      dup6\n        /* \"contracts/Auction.sol\":3911:3925  items[_itemId] */\n      0x3\n      dup2\n      lt\n      iszero\n      iszero\n      tag_43\n      jumpi\n      invalid\n    tag_43:\n      0x2\n      mul\n      add\n        /* \"contracts/Auction.sol\":3888:3925  Item storage bidItem = items[_itemId] */\n      swap2\n      pop\n        /* \"contracts/Auction.sol\":3947:3948  0 */\n      0x0\n        /* \"contracts/Auction.sol\":3940:3948  uint i=0 */\n      swap1\n      pop\n        /* \"contracts/Auction.sol\":3936:4053  for(uint i=0; i<_count;i++) {\r... */\n    tag_45:\n        /* \"contracts/Auction.sol\":3952:3958  _count */\n      dup4\n        /* \"contracts/Auction.sol\":3950:3951  i */\n      dup2\n        /* \"contracts/Auction.sol\":3950:3958  i<_count */\n      lt\n        /* \"contracts/Auction.sol\":3936:4053  for(uint i=0; i<_count;i++) {\r... */\n      iszero\n      tag_46\n      jumpi\n        /* \"contracts/Auction.sol\":3979:3986  bidItem */\n      dup2\n        /* \"contracts/Auction.sol\":3979:3997  bidItem.itemTokens */\n      0x1\n      add\n        /* \"contracts/Auction.sol\":3979:4037  bidItem.itemTokens.push(tokenDetails[msg.sender].personId) */\n      dup1\n      sload\n      dup1\n      0x1\n      add\n      dup3\n      dup2\n      tag_48\n      swap2\n      swap1\n      jump\t// in(tag_49)\n    tag_48:\n      swap2\n      0x0\n      mstore\n      keccak256(0x0, 0x20)\n      swap1\n      add\n      0x0\n        /* \"contracts/Auction.sol\":4003:4015  tokenDetails */\n      dup1\n        /* \"contracts/Auction.sol\":4003:4027  tokenDetails[msg.sender] */\n      0x0\n        /* \"contracts/Auction.sol\":4016:4026  msg.sender */\n      caller\n        /* \"contracts/Auction.sol\":4003:4027  tokenDetails[msg.sender] */\n      0xffffffffffffffffffffffffffffffffffffffff\n      and\n      0xffffffffffffffffffffffffffffffffffffffff\n      and\n      dup2\n      mstore\n      0x20\n      add\n      swap1\n      dup2\n      mstore\n      0x20\n      add\n      0x0\n      keccak256\n        /* \"contracts/Auction.sol\":4003:4036  tokenDetails[msg.sender].personId */\n      0x1\n      add\n      sload\n        /* \"contracts/Auction.sol\":3979:4037  bidItem.itemTokens.push(tokenDetails[msg.sender].personId) */\n      swap1\n      swap2\n      swap1\n      swap2\n      pop\n      sstore\n      pop\n        /* \"contracts/Auction.sol\":3959:3962  i++ */\n      dup1\n      dup1\n      0x1\n      add\n      swap2\n      pop\n      pop\n        /* \"contracts/Auction.sol\":3936:4053  for(uint i=0; i<_count;i++) {\r... */\n      jump(tag_45)\n    tag_46:\n        /* \"contracts/Auction.sol\":2269:4060  function bid(uint _itemId, uint _count) public payable{\r... */\n      pop\n      pop\n      pop\n      pop\n      pop\n      jump\t// out\n        /* \"contracts/Auction.sol\":5669:5839  function getPersonDetails(uint id) public constant returns(uint,uint,address){\r... */\n    tag_18:\n        /* \"contracts/Auction.sol\":5728:5732  uint */\n      0x0\n        /* \"contracts/Auction.sol\":5733:5737  uint */\n      dup1\n        /* \"contracts/Auction.sol\":5738:5745  address */\n      0x0\n        /* \"contracts/Auction.sol\":5765:5772  bidders */\n      0x1\n        /* \"contracts/Auction.sol\":5773:5775  id */\n      dup5\n        /* \"contracts/Auction.sol\":5765:5776  bidders[id] */\n      0x4\n      dup2\n      lt\n      iszero\n      iszero\n      tag_52\n      jumpi\n      invalid\n    tag_52:\n      0x3\n      mul\n      add\n        /* \"contracts/Auction.sol\":5765:5792  bidders[id].remainingTokens */\n      0x0\n      add\n      sload\n        /* \"contracts/Auction.sol\":5793:5800  bidders */\n      0x1\n        /* \"contracts/Auction.sol\":5801:5803  id */\n      dup6\n        /* \"contracts/Auction.sol\":5793:5804  bidders[id] */\n      0x4\n      dup2\n      lt\n      iszero\n      iszero\n      tag_54\n      jumpi\n      invalid\n    tag_54:\n      0x3\n      mul\n      add\n        /* \"contracts/Auction.sol\":5793:5813  bidders[id].personId */\n      0x1\n      add\n      sload\n        /* \"contracts/Auction.sol\":5814:5821  bidders */\n      0x1\n        /* \"contracts/Auction.sol\":5822:5824  id */\n      dup7\n        /* \"contracts/Auction.sol\":5814:5825  bidders[id] */\n      0x4\n      dup2\n      lt\n      iszero\n      iszero\n      tag_56\n      jumpi\n      invalid\n    tag_56:\n      0x3\n      mul\n      add\n        /* \"contracts/Auction.sol\":5814:5830  bidders[id].addr */\n      0x2\n      add\n      0x0\n      swap1\n      sload\n      swap1\n      0x100\n      exp\n      swap1\n      div\n      0xffffffffffffffffffffffffffffffffffffffff\n      and\n        /* \"contracts/Auction.sol\":5757:5831  return (bidders[id].remainingTokens,bidders[id].personId,bidders[id].addr) */\n      swap3\n      pop\n      swap3\n      pop\n      swap3\n      pop\n        /* \"contracts/Auction.sol\":5669:5839  function getPersonDetails(uint id) public constant returns(uint,uint,address){\r... */\n      swap2\n      swap4\n      swap1\n      swap3\n      pop\n      jump\t// out\n        /* \"contracts/Auction.sol\":4463:5564  function revealWinners() public onlyOwner{\r... */\n    tag_21:\n        /* \"contracts/Auction.sol\":4701:4708  uint id */\n      0x0\n        /* \"contracts/Auction.sol\":4743:4767  Item storage currentItem */\n      dup1\n        /* \"contracts/Auction.sol\":4897:4913  uint randomIndex */\n      0x0\n        /* \"contracts/Auction.sol\":5054:5067  uint winnerId */\n      dup1\n        /* \"contracts/Auction.sol\":4381:4392  beneficiary */\n      0x16\n      0x0\n      swap1\n      sload\n      swap1\n      0x100\n      exp\n      swap1\n      div\n      0xffffffffffffffffffffffffffffffffffffffff\n      and\n        /* \"contracts/Auction.sol\":4367:4392  msg.sender == beneficiary */\n      0xffffffffffffffffffffffffffffffffffffffff\n      and\n        /* \"contracts/Auction.sol\":4367:4377  msg.sender */\n      caller\n        /* \"contracts/Auction.sol\":4367:4392  msg.sender == beneficiary */\n      0xffffffffffffffffffffffffffffffffffffffff\n      and\n      eq\n        /* \"contracts/Auction.sol\":4359:4393  require(msg.sender == beneficiary) */\n      iszero\n      iszero\n      tag_59\n      jumpi\n      0x0\n      dup1\n      revert\n    tag_59:\n        /* \"contracts/Auction.sol\":4711:4712  0 */\n      0x0\n        /* \"contracts/Auction.sol\":4701:4712  uint id = 0 */\n      swap4\n      pop\n        /* \"contracts/Auction.sol\":4696:5557  for (uint id = 0; id < 3; id++) {\r... */\n    tag_61:\n        /* \"contracts/Auction.sol\":4719:4720  3 */\n      0x3\n        /* \"contracts/Auction.sol\":4714:4716  id */\n      dup5\n        /* \"contracts/Auction.sol\":4714:4720  id < 3 */\n      lt\n        /* \"contracts/Auction.sol\":4696:5557  for (uint id = 0; id < 3; id++) {\r... */\n      iszero\n      tag_62\n      jumpi\n        /* \"contracts/Auction.sol\":4768:4773  items */\n      0xd\n        /* \"contracts/Auction.sol\":4774:4776  id */\n      dup5\n        /* \"contracts/Auction.sol\":4768:4777  items[id] */\n      0x3\n      dup2\n      lt\n      iszero\n      iszero\n      tag_64\n      jumpi\n      invalid\n    tag_64:\n      0x2\n      mul\n      add\n        /* \"contracts/Auction.sol\":4743:4777  Item storage currentItem=items[id] */\n      swap3\n      pop\n        /* \"contracts/Auction.sol\":4828:4829  0 */\n      0x0\n        /* \"contracts/Auction.sol\":4795:4806  currentItem */\n      dup4\n        /* \"contracts/Auction.sol\":4795:4817  currentItem.itemTokens */\n      0x1\n      add\n        /* \"contracts/Auction.sol\":4795:4824  currentItem.itemTokens.length */\n      dup1\n      sload\n      swap1\n      pop\n        /* \"contracts/Auction.sol\":4795:4829  currentItem.itemTokens.length != 0 */\n      eq\n      iszero\n        /* \"contracts/Auction.sol\":4792:5546  if(currentItem.itemTokens.length != 0){\r... */\n      iszero\n      tag_66\n      jumpi\n        /* \"contracts/Auction.sol\":4964:4975  currentItem */\n      dup3\n        /* \"contracts/Auction.sol\":4964:4986  currentItem.itemTokens */\n      0x1\n      add\n        /* \"contracts/Auction.sol\":4964:4993  currentItem.itemTokens.length */\n      dup1\n      sload\n      swap1\n      pop\n        /* \"contracts/Auction.sol\":4932:4943  currentItem */\n      dup4\n        /* \"contracts/Auction.sol\":4932:4954  currentItem.itemTokens */\n      0x1\n      add\n        /* \"contracts/Auction.sol\":4932:4961  currentItem.itemTokens.length */\n      dup1\n      sload\n      swap1\n      pop\n        /* \"contracts/Auction.sol\":4917:4929  block.number */\n      number\n        /* \"contracts/Auction.sol\":4917:4961  block.number / currentItem.itemTokens.length */\n      dup2\n      iszero\n      iszero\n      tag_67\n      jumpi\n      invalid\n    tag_67:\n      div\n        /* \"contracts/Auction.sol\":4916:4993  (block.number / currentItem.itemTokens.length)% currentItem.itemTokens.length */\n      dup2\n      iszero\n      iszero\n      tag_68\n      jumpi\n      invalid\n    tag_68:\n      mod\n        /* \"contracts/Auction.sol\":4897:4993  uint randomIndex = (block.number / currentItem.itemTokens.length)% currentItem.itemTokens.length */\n      swap2\n      pop\n        /* \"contracts/Auction.sol\":5070:5081  currentItem */\n      dup3\n        /* \"contracts/Auction.sol\":5070:5092  currentItem.itemTokens */\n      0x1\n      add\n        /* \"contracts/Auction.sol\":5093:5104  randomIndex */\n      dup3\n        /* \"contracts/Auction.sol\":5070:5105  currentItem.itemTokens[randomIndex] */\n      dup2\n      sload\n      dup2\n      lt\n      iszero\n      iszero\n      tag_69\n      jumpi\n      invalid\n    tag_69:\n      swap1\n      0x0\n      mstore\n      keccak256(0x0, 0x20)\n      swap1\n      add\n      sload\n        /* \"contracts/Auction.sol\":5054:5105  uint winnerId = currentItem.itemTokens[randomIndex] */\n      swap1\n      pop\n        /* \"contracts/Auction.sol\":5450:5457  bidders */\n      0x1\n        /* \"contracts/Auction.sol\":5458:5466  winnerId */\n      dup2\n        /* \"contracts/Auction.sol\":5450:5467  bidders[winnerId] */\n      0x4\n      dup2\n      lt\n      iszero\n      iszero\n      tag_71\n      jumpi\n      invalid\n    tag_71:\n      0x3\n      mul\n      add\n        /* \"contracts/Auction.sol\":5450:5472  bidders[winnerId].addr */\n      0x2\n      add\n      0x0\n      swap1\n      sload\n      swap1\n      0x100\n      exp\n      swap1\n      div\n      0xffffffffffffffffffffffffffffffffffffffff\n      and\n        /* \"contracts/Auction.sol\":5436:5443  winners */\n      0x13\n        /* \"contracts/Auction.sol\":5444:5446  id */\n      dup6\n        /* \"contracts/Auction.sol\":5436:5447  winners[id] */\n      0x3\n      dup2\n      lt\n      iszero\n      iszero\n      tag_73\n      jumpi\n      invalid\n    tag_73:\n      add\n      0x0\n        /* \"contracts/Auction.sol\":5436:5472  winners[id] = bidders[winnerId].addr */\n      0x100\n      exp\n      dup2\n      sload\n      dup2\n      0xffffffffffffffffffffffffffffffffffffffff\n      mul\n      not\n      and\n      swap1\n      dup4\n      0xffffffffffffffffffffffffffffffffffffffff\n      and\n      mul\n      or\n      swap1\n      sstore\n      pop\n        /* \"contracts/Auction.sol\":4792:5546  if(currentItem.itemTokens.length != 0){\r... */\n    tag_66:\n        /* \"contracts/Auction.sol\":4722:4726  id++ */\n      dup4\n      dup1\n      0x1\n      add\n      swap5\n      pop\n      pop\n        /* \"contracts/Auction.sol\":4696:5557  for (uint id = 0; id < 3; id++) {\r... */\n      jump(tag_61)\n    tag_62:\n        /* \"contracts/Auction.sol\":4463:5564  function revealWinners() public onlyOwner{\r... */\n      pop\n      pop\n      pop\n      pop\n      jump\t// out\n        /* \"contracts/Auction.sol\":697:722  address[3] public winners */\n    tag_24:\n      0x13\n      dup2\n      0x3\n      dup2\n      lt\n      iszero\n      iszero\n      tag_75\n      jumpi\n      invalid\n    tag_75:\n      add\n      0x0\n      swap2\n      pop\n      sload\n      swap1\n      0x100\n      exp\n      swap1\n      div\n      0xffffffffffffffffffffffffffffffffffffffff\n      and\n      dup2\n      jump\t// out\n        /* \"contracts/Auction.sol\":636:657  Item [3] public items */\n    tag_27:\n      0xd\n      dup2\n      0x3\n      dup2\n      lt\n      iszero\n      iszero\n      tag_77\n      jumpi\n      invalid\n    tag_77:\n      0x2\n      mul\n      add\n      0x0\n      swap2\n      pop\n      swap1\n      pop\n      dup1\n      0x0\n      add\n      sload\n      swap1\n      pop\n      dup2\n      jump\t// out\n        /* \"contracts/Auction.sol\":26:5844  contract Auction {\r... */\n    tag_49:\n      dup2\n      sload\n      dup2\n      dup4\n      sstore\n      dup2\n      dup2\n      iszero\n      gt\n      tag_79\n      jumpi\n      dup2\n      dup4\n      0x0\n      mstore\n      keccak256(0x0, 0x20)\n      swap2\n      dup3\n      add\n      swap2\n      add\n      tag_80\n      swap2\n      swap1\n      jump\t// in(tag_81)\n    tag_80:\n    tag_79:\n      pop\n      pop\n      pop\n      jump\t// out\n    tag_81:\n      tag_82\n      swap2\n      swap1\n    tag_83:\n      dup1\n      dup3\n      gt\n      iszero\n      tag_84\n      jumpi\n      0x0\n      dup2\n      0x0\n      swap1\n      sstore\n      pop\n      0x1\n      add\n      jump(tag_83)\n    tag_84:\n      pop\n      swap1\n      jump\n    tag_82:\n      swap1\n      jump\t// out\n\n    auxdata: 0xa165627a7a72305820380a35d21454090efce6ce5febe153d4ee1cdf40aa262f0f4b9e17c590c52a0d0029\n}\n",
				"bytecode": {
					"linkReferences": {},
					"object": "60606040526000601755610011610154565b33601660006101000a81548173ffffffffffffffffffffffffffffffffffffffff021916908373ffffffffffffffffffffffffffffffffffffffff16021790555060408051908101604052806000815260200182815250600d600060038110151561007857fe5b600202016000820151816000015560208201518160010190805190602001906100a2929190610168565b5090505060408051908101604052806001815260200182815250600d60016003811015156100cc57fe5b600202016000820151816000015560208201518160010190805190602001906100f6929190610168565b5090505060408051908101604052806002815260200182815250600d600260038110151561012057fe5b6002020160008201518160000155602082015181600101908051906020019061014a929190610168565b50905050506101da565b602060405190810160405280600081525090565b8280548282559060005260206000209081019282156101a4579160200282015b828111156101a3578251825591602001919060010190610188565b5b5090506101b191906101b5565b5090565b6101d791905b808211156101d35760008160009055506001016101bb565b5090565b90565b6108ba806101e96000396000f30060606040523615610081576000357c0100000000000000000000000000000000000000000000000000000000900463ffffffff1680631aa3a0081461008657806338af3eed14610090578063598647f8146100e55780636098170514610106578063952587d614610177578063a2fb11751461018c578063bfb231d2146101ef575b600080fd5b61008e610226565b005b341561009b57600080fd5b6100a361039f565b604051808273ffffffffffffffffffffffffffffffffffffffff1673ffffffffffffffffffffffffffffffffffffffff16815260200191505060405180910390f35b61010460048080359060200190919080359060200190919050506103c5565b005b341561011157600080fd5b61012760048080359060200190919050506105f9565b604051808481526020018381526020018273ffffffffffffffffffffffffffffffffffffffff1673ffffffffffffffffffffffffffffffffffffffff168152602001935050505060405180910390f35b341561018257600080fd5b61018a610670565b005b341561019757600080fd5b6101ad60048080359060200190919050506107e5565b604051808273ffffffffffffffffffffffffffffffffffffffff1673ffffffffffffffffffffffffffffffffffffffff16815260200191505060405180910390f35b34156101fa57600080fd5b610210600480803590602001909190505061081a565b6040518082815260200191505060405180910390f35b601754600160175460048110151561023a57fe5b600302016001018190555033600160175460048110151561025757fe5b6003020160020160006101000a81548173ffffffffffffffffffffffffffffffffffffffff021916908373ffffffffffffffffffffffffffffffffffffffff160217905550600560016017546004811015156102af57fe5b600302016000018190555060016017546004811015156102cb57fe5b600302016000803373ffffffffffffffffffffffffffffffffffffffff1673ffffffffffffffffffffffffffffffffffffffff16815260200190815260200160002060008201548160000155600182015481600101556002820160009054906101000a900473ffffffffffffffffffffffffffffffffffffffff168160020160006101000a81548173ffffffffffffffffffffffffffffffffffffffff021916908373ffffffffffffffffffffffffffffffffffffffff160217905550905050601760008154809291906001019190505550565b601660009054906101000a900473ffffffffffffffffffffffffffffffffffffffff1681565b6000806000836000803373ffffffffffffffffffffffffffffffffffffffff1673ffffffffffffffffffffffffffffffffffffffff16815260200190815260200160002060000154108061045a575060008060003373ffffffffffffffffffffffffffffffffffffffff1673ffffffffffffffffffffffffffffffffffffffff16815260200190815260200160002060000154145b806104655750600285115b1561046f57600080fd5b836000803373ffffffffffffffffffffffffffffffffffffffff1673ffffffffffffffffffffffffffffffffffffffff16815260200190815260200160002060000154039250826000803373ffffffffffffffffffffffffffffffffffffffff1673ffffffffffffffffffffffffffffffffffffffff168152602001908152602001600020600001819055508260016000803373ffffffffffffffffffffffffffffffffffffffff1673ffffffffffffffffffffffffffffffffffffffff1681526020019081526020016000206001015460048110151561054c57fe5b6003020160000181905550600d8560038110151561056657fe5b600202019150600090505b838110156105f25781600101805480600101828161058f919061083d565b916000526020600020900160008060003373ffffffffffffffffffffffffffffffffffffffff1673ffffffffffffffffffffffffffffffffffffffff16815260200190815260200160002060010154909190915055508080600101915050610571565b5050505050565b600080600060018460048110151561060d57fe5b600302016000015460018560048110151561062457fe5b600302016001015460018660048110151561063b57fe5b6003020160020160009054906101000a900473ffffffffffffffffffffffffffffffffffffffff169250925092509193909250565b600080600080601660009054906101000a900473ffffffffffffffffffffffffffffffffffffffff1673ffffffffffffffffffffffffffffffffffffffff163373ffffffffffffffffffffffffffffffffffffffff161415156106d257600080fd5b600093505b60038410156107df57600d846003811015156106ef57fe5b600202019250600083600101805490501415156107d257826001018054905083600101805490504381151561072057fe5b0481151561072a57fe5b069150826001018281548110151561073e57fe5b906000526020600020900154905060018160048110151561075b57fe5b6003020160020160009054906101000a900473ffffffffffffffffffffffffffffffffffffffff1660138560038110151561079257fe5b0160006101000a81548173ffffffffffffffffffffffffffffffffffffffff021916908373ffffffffffffffffffffffffffffffffffffffff1602179055505b83806001019450506106d7565b50505050565b6013816003811015156107f457fe5b016000915054906101000a900473ffffffffffffffffffffffffffffffffffffffff1681565b600d8160038110151561082957fe5b600202016000915090508060000154905081565b815481835581811511610864578183600052602060002091820191016108639190610869565b5b505050565b61088b91905b8082111561088757600081600090555060010161086f565b5090565b905600a165627a7a72305820380a35d21454090efce6ce5febe153d4ee1cdf40aa262f0f4b9e17c590c52a0d0029",
					"opcodes": "PUSH1 0x60 PUSH1 0x40 MSTORE PUSH1 0x0 PUSH1 0x17 SSTORE PUSH2 0x11 PUSH2 0x154 JUMP JUMPDEST CALLER PUSH1 0x16 PUSH1 0x0 PUSH2 0x100 EXP DUP2 SLOAD DUP2 PUSH20 0xFFFFFFFFFFFFFFFFFFFFFFFFFFFFFFFFFFFFFFFF MUL NOT AND SWAP1 DUP4 PUSH20 0xFFFFFFFFFFFFFFFFFFFFFFFFFFFFFFFFFFFFFFFF AND MUL OR SWAP1 SSTORE POP PUSH1 0x40 DUP1 MLOAD SWAP1 DUP2 ADD PUSH1 0x40 MSTORE DUP1 PUSH1 0x0 DUP2 MSTORE PUSH1 0x20 ADD DUP3 DUP2 MSTORE POP PUSH1 0xD PUSH1 0x0 PUSH1 0x3 DUP2 LT ISZERO ISZERO PUSH2 0x78 JUMPI INVALID JUMPDEST PUSH1 0x2 MUL ADD PUSH1 0x0 DUP3 ADD MLOAD DUP2 PUSH1 0x0 ADD SSTORE PUSH1 0x20 DUP3 ADD MLOAD DUP2 PUSH1 0x1 ADD SWAP1 DUP1 MLOAD SWAP1 PUSH1 0x20 ADD SWAP1 PUSH2 0xA2 SWAP3 SWAP2 SWAP1 PUSH2 0x168 JUMP JUMPDEST POP SWAP1 POP POP PUSH1 0x40 DUP1 MLOAD SWAP1 DUP2 ADD PUSH1 0x40 MSTORE DUP1 PUSH1 0x1 DUP2 MSTORE PUSH1 0x20 ADD DUP3 DUP2 MSTORE POP PUSH1 0xD PUSH1 0x1 PUSH1 0x3 DUP2 LT ISZERO ISZERO PUSH2 0xCC JUMPI INVALID JUMPDEST PUSH1 0x2 MUL ADD PUSH1 0x0 DUP3 ADD MLOAD DUP2 PUSH1 0x0 ADD SSTORE PUSH1 0x20 DUP3 ADD MLOAD DUP2 PUSH1 0x1 ADD SWAP1 DUP1 MLOAD SWAP1 PUSH1 0x20 ADD SWAP1 PUSH2 0xF6 SWAP3 SWAP2 SWAP1 PUSH2 0x168 JUMP JUMPDEST POP SWAP1 POP POP PUSH1 0x40 DUP1 MLOAD SWAP1 DUP2 ADD PUSH1 0x40 MSTORE DUP1 PUSH1 0x2 DUP2 MSTORE PUSH1 0x20 ADD DUP3 DUP2 MSTORE POP PUSH1 0xD PUSH1 0x2 PUSH1 0x3 DUP2 LT ISZERO ISZERO PUSH2 0x120 JUMPI INVALID JUMPDEST PUSH1 0x2 MUL ADD PUSH1 0x0 DUP3 ADD MLOAD DUP2 PUSH1 0x0 ADD SSTORE PUSH1 0x20 DUP3 ADD MLOAD DUP2 PUSH1 0x1 ADD SWAP1 DUP1 MLOAD SWAP1 PUSH1 0x20 ADD SWAP1 PUSH2 0x14A SWAP3 SWAP2 SWAP1 PUSH2 0x168 JUMP JUMPDEST POP SWAP1 POP POP POP PUSH2 0x1DA JUMP JUMPDEST PUSH1 0x20 PUSH1 0x40 MLOAD SWAP1 DUP2 ADD PUSH1 0x40 MSTORE DUP1 PUSH1 0x0 DUP2 MSTORE POP SWAP1 JUMP JUMPDEST DUP3 DUP1 SLOAD DUP3 DUP3 SSTORE SWAP1 PUSH1 0x0 MSTORE PUSH1 0x20 PUSH1 0x0 KECCAK256 SWAP1 DUP2 ADD SWAP3 DUP3 ISZERO PUSH2 0x1A4 JUMPI SWAP2 PUSH1 0x20 MUL DUP3 ADD JUMPDEST DUP3 DUP2 GT ISZERO PUSH2 0x1A3 JUMPI DUP3 MLOAD DUP3 SSTORE SWAP2 PUSH1 0x20 ADD SWAP2 SWAP1 PUSH1 0x1 ADD SWAP1 PUSH2 0x188 JUMP JUMPDEST JUMPDEST POP SWAP1 POP PUSH2 0x1B1 SWAP2 SWAP1 PUSH2 0x1B5 JUMP JUMPDEST POP SWAP1 JUMP JUMPDEST PUSH2 0x1D7 SWAP2 SWAP1 JUMPDEST DUP1 DUP3 GT ISZERO PUSH2 0x1D3 JUMPI PUSH1 0x0 DUP2 PUSH1 0x0 SWAP1 SSTORE POP PUSH1 0x1 ADD PUSH2 0x1BB JUMP JUMPDEST POP SWAP1 JUMP JUMPDEST SWAP1 JUMP JUMPDEST PUSH2 0x8BA DUP1 PUSH2 0x1E9 PUSH1 0x0 CODECOPY PUSH1 0x0 RETURN STOP PUSH1 0x60 PUSH1 0x40 MSTORE CALLDATASIZE ISZERO PUSH2 0x81 JUMPI PUSH1 0x0 CALLDATALOAD PUSH29 0x100000000000000000000000000000000000000000000000000000000 SWAP1 DIV PUSH4 0xFFFFFFFF AND DUP1 PUSH4 0x1AA3A008 EQ PUSH2 0x86 JUMPI DUP1 PUSH4 0x38AF3EED EQ PUSH2 0x90 JUMPI DUP1 PUSH4 0x598647F8 EQ PUSH2 0xE5 JUMPI DUP1 PUSH4 0x60981705 EQ PUSH2 0x106 JUMPI DUP1 PUSH4 0x952587D6 EQ PUSH2 0x177 JUMPI DUP1 PUSH4 0xA2FB1175 EQ PUSH2 0x18C JUMPI DUP1 PUSH4 0xBFB231D2 EQ PUSH2 0x1EF JUMPI JUMPDEST PUSH1 0x0 DUP1 REVERT JUMPDEST PUSH2 0x8E PUSH2 0x226 JUMP JUMPDEST STOP JUMPDEST CALLVALUE ISZERO PUSH2 0x9B JUMPI PUSH1 0x0 DUP1 REVERT JUMPDEST PUSH2 0xA3 PUSH2 0x39F JUMP JUMPDEST PUSH1 0x40 MLOAD DUP1 DUP3 PUSH20 0xFFFFFFFFFFFFFFFFFFFFFFFFFFFFFFFFFFFFFFFF AND PUSH20 0xFFFFFFFFFFFFFFFFFFFFFFFFFFFFFFFFFFFFFFFF AND DUP2 MSTORE PUSH1 0x20 ADD SWAP2 POP POP PUSH1 0x40 MLOAD DUP1 SWAP2 SUB SWAP1 RETURN JUMPDEST PUSH2 0x104 PUSH1 0x4 DUP1 DUP1 CALLDATALOAD SWAP1 PUSH1 0x20 ADD SWAP1 SWAP2 SWAP1 DUP1 CALLDATALOAD SWAP1 PUSH1 0x20 ADD SWAP1 SWAP2 SWAP1 POP POP PUSH2 0x3C5 JUMP JUMPDEST STOP JUMPDEST CALLVALUE ISZERO PUSH2 0x111 JUMPI PUSH1 0x0 DUP1 REVERT JUMPDEST PUSH2 0x127 PUSH1 0x4 DUP1 DUP1 CALLDATALOAD SWAP1 PUSH1 0x20 ADD SWAP1 SWAP2 SWAP1 POP POP PUSH2 0x5F9 JUMP JUMPDEST PUSH1 0x40 MLOAD DUP1 DUP5 DUP2 MSTORE PUSH1 0x20 ADD DUP4 DUP2 MSTORE PUSH1 0x20 ADD DUP3 PUSH20 0xFFFFFFFFFFFFFFFFFFFFFFFFFFFFFFFFFFFFFFFF AND PUSH20 0xFFFFFFFFFFFFFFFFFFFFFFFFFFFFFFFFFFFFFFFF AND DUP2 MSTORE PUSH1 0x20 ADD SWAP4 POP POP POP POP PUSH1 0x40 MLOAD DUP1 SWAP2 SUB SWAP1 RETURN JUMPDEST CALLVALUE ISZERO PUSH2 0x182 JUMPI PUSH1 0x0 DUP1 REVERT JUMPDEST PUSH2 0x18A PUSH2 0x670 JUMP JUMPDEST STOP JUMPDEST CALLVALUE ISZERO PUSH2 0x197 JUMPI PUSH1 0x0 DUP1 REVERT JUMPDEST PUSH2 0x1AD PUSH1 0x4 DUP1 DUP1 CALLDATALOAD SWAP1 PUSH1 0x20 ADD SWAP1 SWAP2 SWAP1 POP POP PUSH2 0x7E5 JUMP JUMPDEST PUSH1 0x40 MLOAD DUP1 DUP3 PUSH20 0xFFFFFFFFFFFFFFFFFFFFFFFFFFFFFFFFFFFFFFFF AND PUSH20 0xFFFFFFFFFFFFFFFFFFFFFFFFFFFFFFFFFFFFFFFF AND DUP2 MSTORE PUSH1 0x20 ADD SWAP2 POP POP PUSH1 0x40 MLOAD DUP1 SWAP2 SUB SWAP1 RETURN JUMPDEST CALLVALUE ISZERO PUSH2 0x1FA JUMPI PUSH1 0x0 DUP1 REVERT JUMPDEST PUSH2 0x210 PUSH1 0x4 DUP1 DUP1 CALLDATALOAD SWAP1 PUSH1 0x20 ADD SWAP1 SWAP2 SWAP1 POP POP PUSH2 0x81A JUMP JUMPDEST PUSH1 0x40 MLOAD DUP1 DUP3 DUP2 MSTORE PUSH1 0x20 ADD SWAP2 POP POP PUSH1 0x40 MLOAD DUP1 SWAP2 SUB SWAP1 RETURN JUMPDEST PUSH1 0x17 SLOAD PUSH1 0x1 PUSH1 0x17 SLOAD PUSH1 0x4 DUP2 LT ISZERO ISZERO PUSH2 0x23A JUMPI INVALID JUMPDEST PUSH1 0x3 MUL ADD PUSH1 0x1 ADD DUP2 SWAP1 SSTORE POP CALLER PUSH1 0x1 PUSH1 0x17 SLOAD PUSH1 0x4 DUP2 LT ISZERO ISZERO PUSH2 0x257 JUMPI INVALID JUMPDEST PUSH1 0x3 MUL ADD PUSH1 0x2 ADD PUSH1 0x0 PUSH2 0x100 EXP DUP2 SLOAD DUP2 PUSH20 0xFFFFFFFFFFFFFFFFFFFFFFFFFFFFFFFFFFFFFFFF MUL NOT AND SWAP1 DUP4 PUSH20 0xFFFFFFFFFFFFFFFFFFFFFFFFFFFFFFFFFFFFFFFF AND MUL OR SWAP1 SSTORE POP PUSH1 0x5 PUSH1 0x1 PUSH1 0x17 SLOAD PUSH1 0x4 DUP2 LT ISZERO ISZERO PUSH2 0x2AF JUMPI INVALID JUMPDEST PUSH1 0x3 MUL ADD PUSH1 0x0 ADD DUP2 SWAP1 SSTORE POP PUSH1 0x1 PUSH1 0x17 SLOAD PUSH1 0x4 DUP2 LT ISZERO ISZERO PUSH2 0x2CB JUMPI INVALID JUMPDEST PUSH1 0x3 MUL ADD PUSH1 0x0 DUP1 CALLER PUSH20 0xFFFFFFFFFFFFFFFFFFFFFFFFFFFFFFFFFFFFFFFF AND PUSH20 0xFFFFFFFFFFFFFFFFFFFFFFFFFFFFFFFFFFFFFFFF AND DUP2 MSTORE PUSH1 0x20 ADD SWAP1 DUP2 MSTORE PUSH1 0x20 ADD PUSH1 0x0 KECCAK256 PUSH1 0x0 DUP3 ADD SLOAD DUP2 PUSH1 0x0 ADD SSTORE PUSH1 0x1 DUP3 ADD SLOAD DUP2 PUSH1 0x1 ADD SSTORE PUSH1 0x2 DUP3 ADD PUSH1 0x0 SWAP1 SLOAD SWAP1 PUSH2 0x100 EXP SWAP1 DIV PUSH20 0xFFFFFFFFFFFFFFFFFFFFFFFFFFFFFFFFFFFFFFFF AND DUP2 PUSH1 0x2 ADD PUSH1 0x0 PUSH2 0x100 EXP DUP2 SLOAD DUP2 PUSH20 0xFFFFFFFFFFFFFFFFFFFFFFFFFFFFFFFFFFFFFFFF MUL NOT AND SWAP1 DUP4 PUSH20 0xFFFFFFFFFFFFFFFFFFFFFFFFFFFFFFFFFFFFFFFF AND MUL OR SWAP1 SSTORE POP SWAP1 POP POP PUSH1 0x17 PUSH1 0x0 DUP2 SLOAD DUP1 SWAP3 SWAP2 SWAP1 PUSH1 0x1 ADD SWAP2 SWAP1 POP SSTORE POP JUMP JUMPDEST PUSH1 0x16 PUSH1 0x0 SWAP1 SLOAD SWAP1 PUSH2 0x100 EXP SWAP1 DIV PUSH20 0xFFFFFFFFFFFFFFFFFFFFFFFFFFFFFFFFFFFFFFFF AND DUP2 JUMP JUMPDEST PUSH1 0x0 DUP1 PUSH1 0x0 DUP4 PUSH1 0x0 DUP1 CALLER PUSH20 0xFFFFFFFFFFFFFFFFFFFFFFFFFFFFFFFFFFFFFFFF AND PUSH20 0xFFFFFFFFFFFFFFFFFFFFFFFFFFFFFFFFFFFFFFFF AND DUP2 MSTORE PUSH1 0x20 ADD SWAP1 DUP2 MSTORE PUSH1 0x20 ADD PUSH1 0x0 KECCAK256 PUSH1 0x0 ADD SLOAD LT DUP1 PUSH2 0x45A JUMPI POP PUSH1 0x0 DUP1 PUSH1 0x0 CALLER PUSH20 0xFFFFFFFFFFFFFFFFFFFFFFFFFFFFFFFFFFFFFFFF AND PUSH20 0xFFFFFFFFFFFFFFFFFFFFFFFFFFFFFFFFFFFFFFFF AND DUP2 MSTORE PUSH1 0x20 ADD SWAP1 DUP2 MSTORE PUSH1 0x20 ADD PUSH1 0x0 KECCAK256 PUSH1 0x0 ADD SLOAD EQ JUMPDEST DUP1 PUSH2 0x465 JUMPI POP PUSH1 0x2 DUP6 GT JUMPDEST ISZERO PUSH2 0x46F JUMPI PUSH1 0x0 DUP1 REVERT JUMPDEST DUP4 PUSH1 0x0 DUP1 CALLER PUSH20 0xFFFFFFFFFFFFFFFFFFFFFFFFFFFFFFFFFFFFFFFF AND PUSH20 0xFFFFFFFFFFFFFFFFFFFFFFFFFFFFFFFFFFFFFFFF AND DUP2 MSTORE PUSH1 0x20 ADD SWAP1 DUP2 MSTORE PUSH1 0x20 ADD PUSH1 0x0 KECCAK256 PUSH1 0x0 ADD SLOAD SUB SWAP3 POP DUP3 PUSH1 0x0 DUP1 CALLER PUSH20 0xFFFFFFFFFFFFFFFFFFFFFFFFFFFFFFFFFFFFFFFF AND PUSH20 0xFFFFFFFFFFFFFFFFFFFFFFFFFFFFFFFFFFFFFFFF AND DUP2 MSTORE PUSH1 0x20 ADD SWAP1 DUP2 MSTORE PUSH1 0x20 ADD PUSH1 0x0 KECCAK256 PUSH1 0x0 ADD DUP2 SWAP1 SSTORE POP DUP3 PUSH1 0x1 PUSH1 0x0 DUP1 CALLER PUSH20 0xFFFFFFFFFFFFFFFFFFFFFFFFFFFFFFFFFFFFFFFF AND PUSH20 0xFFFFFFFFFFFFFFFFFFFFFFFFFFFFFFFFFFFFFFFF AND DUP2 MSTORE PUSH1 0x20 ADD SWAP1 DUP2 MSTORE PUSH1 0x20 ADD PUSH1 0x0 KECCAK256 PUSH1 0x1 ADD SLOAD PUSH1 0x4 DUP2 LT ISZERO ISZERO PUSH2 0x54C JUMPI INVALID JUMPDEST PUSH1 0x3 MUL ADD PUSH1 0x0 ADD DUP2 SWAP1 SSTORE POP PUSH1 0xD DUP6 PUSH1 0x3 DUP2 LT ISZERO ISZERO PUSH2 0x566 JUMPI INVALID JUMPDEST PUSH1 0x2 MUL ADD SWAP2 POP PUSH1 0x0 SWAP1 POP JUMPDEST DUP4 DUP2 LT ISZERO PUSH2 0x5F2 JUMPI DUP2 PUSH1 0x1 ADD DUP1 SLOAD DUP1 PUSH1 0x1 ADD DUP3 DUP2 PUSH2 0x58F SWAP2 SWAP1 PUSH2 0x83D JUMP JUMPDEST SWAP2 PUSH1 0x0 MSTORE PUSH1 0x20 PUSH1 0x0 KECCAK256 SWAP1 ADD PUSH1 0x0 DUP1 PUSH1 0x0 CALLER PUSH20 0xFFFFFFFFFFFFFFFFFFFFFFFFFFFFFFFFFFFFFFFF AND PUSH20 0xFFFFFFFFFFFFFFFFFFFFFFFFFFFFFFFFFFFFFFFF AND DUP2 MSTORE PUSH1 0x20 ADD SWAP1 DUP2 MSTORE PUSH1 0x20 ADD PUSH1 0x0 KECCAK256 PUSH1 0x1 ADD SLOAD SWAP1 SWAP2 SWAP1 SWAP2 POP SSTORE POP DUP1 DUP1 PUSH1 0x1 ADD SWAP2 POP POP PUSH2 0x571 JUMP JUMPDEST POP POP POP POP POP JUMP JUMPDEST PUSH1 0x0 DUP1 PUSH1 0x0 PUSH1 0x1 DUP5 PUSH1 0x4 DUP2 LT ISZERO ISZERO PUSH2 0x60D JUMPI INVALID JUMPDEST PUSH1 0x3 MUL ADD PUSH1 0x0 ADD SLOAD PUSH1 0x1 DUP6 PUSH1 0x4 DUP2 LT ISZERO ISZERO PUSH2 0x624 JUMPI INVALID JUMPDEST PUSH1 0x3 MUL ADD PUSH1 0x1 ADD SLOAD PUSH1 0x1 DUP7 PUSH1 0x4 DUP2 LT ISZERO ISZERO PUSH2 0x63B JUMPI INVALID JUMPDEST PUSH1 0x3 MUL ADD PUSH1 0x2 ADD PUSH1 0x0 SWAP1 SLOAD SWAP1 PUSH2 0x100 EXP SWAP1 DIV PUSH20 0xFFFFFFFFFFFFFFFFFFFFFFFFFFFFFFFFFFFFFFFF AND SWAP3 POP SWAP3 POP SWAP3 POP SWAP2 SWAP4 SWAP1 SWAP3 POP JUMP JUMPDEST PUSH1 0x0 DUP1 PUSH1 0x0 DUP1 PUSH1 0x16 PUSH1 0x0 SWAP1 SLOAD SWAP1 PUSH2 0x100 EXP SWAP1 DIV PUSH20 0xFFFFFFFFFFFFFFFFFFFFFFFFFFFFFFFFFFFFFFFF AND PUSH20 0xFFFFFFFFFFFFFFFFFFFFFFFFFFFFFFFFFFFFFFFF AND CALLER PUSH20 0xFFFFFFFFFFFFFFFFFFFFFFFFFFFFFFFFFFFFFFFF AND EQ ISZERO ISZERO PUSH2 0x6D2 JUMPI PUSH1 0x0 DUP1 REVERT JUMPDEST PUSH1 0x0 SWAP4 POP JUMPDEST PUSH1 0x3 DUP5 LT ISZERO PUSH2 0x7DF JUMPI PUSH1 0xD DUP5 PUSH1 0x3 DUP2 LT ISZERO ISZERO PUSH2 0x6EF JUMPI INVALID JUMPDEST PUSH1 0x2 MUL ADD SWAP3 POP PUSH1 0x0 DUP4 PUSH1 0x1 ADD DUP1 SLOAD SWAP1 POP EQ ISZERO ISZERO PUSH2 0x7D2 JUMPI DUP3 PUSH1 0x1 ADD DUP1 SLOAD SWAP1 POP DUP4 PUSH1 0x1 ADD DUP1 SLOAD SWAP1 POP NUMBER DUP2 ISZERO ISZERO PUSH2 0x720 JUMPI INVALID JUMPDEST DIV DUP2 ISZERO ISZERO PUSH2 0x72A JUMPI INVALID JUMPDEST MOD SWAP2 POP DUP3 PUSH1 0x1 ADD DUP3 DUP2 SLOAD DUP2 LT ISZERO ISZERO PUSH2 0x73E JUMPI INVALID JUMPDEST SWAP1 PUSH1 0x0 MSTORE PUSH1 0x20 PUSH1 0x0 KECCAK256 SWAP1 ADD SLOAD SWAP1 POP PUSH1 0x1 DUP2 PUSH1 0x4 DUP2 LT ISZERO ISZERO PUSH2 0x75B JUMPI INVALID JUMPDEST PUSH1 0x3 MUL ADD PUSH1 0x2 ADD PUSH1 0x0 SWAP1 SLOAD SWAP1 PUSH2 0x100 EXP SWAP1 DIV PUSH20 0xFFFFFFFFFFFFFFFFFFFFFFFFFFFFFFFFFFFFFFFF AND PUSH1 0x13 DUP6 PUSH1 0x3 DUP2 LT ISZERO ISZERO PUSH2 0x792 JUMPI INVALID JUMPDEST ADD PUSH1 0x0 PUSH2 0x100 EXP DUP2 SLOAD DUP2 PUSH20 0xFFFFFFFFFFFFFFFFFFFFFFFFFFFFFFFFFFFFFFFF MUL NOT AND SWAP1 DUP4 PUSH20 0xFFFFFFFFFFFFFFFFFFFFFFFFFFFFFFFFFFFFFFFF AND MUL OR SWAP1 SSTORE POP JUMPDEST DUP4 DUP1 PUSH1 0x1 ADD SWAP5 POP POP PUSH2 0x6D7 JUMP JUMPDEST POP POP POP POP JUMP JUMPDEST PUSH1 0x13 DUP2 PUSH1 0x3 DUP2 LT ISZERO ISZERO PUSH2 0x7F4 JUMPI INVALID JUMPDEST ADD PUSH1 0x0 SWAP2 POP SLOAD SWAP1 PUSH2 0x100 EXP SWAP1 DIV PUSH20 0xFFFFFFFFFFFFFFFFFFFFFFFFFFFFFFFFFFFFFFFF AND DUP2 JUMP JUMPDEST PUSH1 0xD DUP2 PUSH1 0x3 DUP2 LT ISZERO ISZERO PUSH2 0x829 JUMPI INVALID JUMPDEST PUSH1 0x2 MUL ADD PUSH1 0x0 SWAP2 POP SWAP1 POP DUP1 PUSH1 0x0 ADD SLOAD SWAP1 POP DUP2 JUMP JUMPDEST DUP2 SLOAD DUP2 DUP4 SSTORE DUP2 DUP2 ISZERO GT PUSH2 0x864 JUMPI DUP2 DUP4 PUSH1 0x0 MSTORE PUSH1 0x20 PUSH1 0x0 KECCAK256 SWAP2 DUP3 ADD SWAP2 ADD PUSH2 0x863 SWAP2 SWAP1 PUSH2 0x869 JUMP JUMPDEST JUMPDEST POP POP POP JUMP JUMPDEST PUSH2 0x88B SWAP2 SWAP1 JUMPDEST DUP1 DUP3 GT ISZERO PUSH2 0x887 JUMPI PUSH1 0x0 DUP2 PUSH1 0x0 SWAP1 SSTORE POP PUSH1 0x1 ADD PUSH2 0x86F JUMP JUMPDEST POP SWAP1 JUMP JUMPDEST SWAP1 JUMP STOP LOG1 PUSH6 0x627A7A723058 KECCAK256 CODESIZE EXP CALLDATALOAD 0xd2 EQ SLOAD MULMOD 0xe 0xfc 0xe6 0xce 0x5f 0xeb 0xe1 MSTORE8 0xd4 0xee 0x1c 0xdf BLOCKHASH 0xaa 0x26 0x2f 0xf 0x4b SWAP15 OR 0xc5 SWAP1 0xc5 0x2a 0xd STOP 0x29 "
				},
				"gasEstimates": {
					"creation": {
						"codeDepositCost": "446800",
						"executionCost": "infinite",
						"totalCost": "infinite"
					},
					"external": {
						"beneficiary()": "453",
						"bid(uint256,uint256)": "infinite",
						"getPersonDetails(uint256)": "1159",
						"items(uint256)": "619",
						"register()": "142880",
						"revealWinners()": "infinite",
						"winners(uint256)": "612"
					}
				},
				"methodIdentifiers": {
					"beneficiary()": "38af3eed",
					"bid(uint256,uint256)": "598647f8",
					"getPersonDetails(uint256)": "60981705",
					"items(uint256)": "bfb231d2",
					"register()": "1aa3a008",
					"revealWinners()": "952587d6",
					"winners(uint256)": "a2fb1175"
				}
			},
			"userdoc": {
				"methods": {}
			}
		}
	}
}